{"abi":[{"type":"constructor","inputs":[{"name":"_asset","type":"address","internalType":"contract ERC20"},{"name":"_name","type":"string","internalType":"string"},{"name":"_symbol","type":"string","internalType":"string"}],"stateMutability":"nonpayable"},{"type":"function","name":"_deposit","inputs":[{"name":"_assets","type":"uint256","internalType":"uint256"}],"outputs":[],"stateMutability":"nonpayable"},{"type":"function","name":"_withdraw","inputs":[{"name":"_shares","type":"uint256","internalType":"uint256"},{"name":"_receiver","type":"address","internalType":"address"}],"outputs":[],"stateMutability":"nonpayable"},{"type":"function","name":"allowance","inputs":[{"name":"owner","type":"address","internalType":"address"},{"name":"spender","type":"address","internalType":"address"}],"outputs":[{"name":"","type":"uint256","internalType":"uint256"}],"stateMutability":"view"},{"type":"function","name":"approve","inputs":[{"name":"spender","type":"address","internalType":"address"},{"name":"value","type":"uint256","internalType":"uint256"}],"outputs":[{"name":"","type":"bool","internalType":"bool"}],"stateMutability":"nonpayable"},{"type":"function","name":"asset","inputs":[],"outputs":[{"name":"","type":"address","internalType":"address"}],"stateMutability":"view"},{"type":"function","name":"attestClaim","inputs":[{"name":"claimIndex","type":"uint256","internalType":"uint256"}],"outputs":[],"stateMutability":"nonpayable"},{"type":"function","name":"balanceOf","inputs":[{"name":"account","type":"address","internalType":"address"}],"outputs":[{"name":"","type":"uint256","internalType":"uint256"}],"stateMutability":"view"},{"type":"function","name":"claims","inputs":[{"name":"","type":"uint256","internalType":"uint256"}],"outputs":[{"name":"policyId","type":"uint256","internalType":"uint256"},{"name":"claimAmount","type":"uint256","internalType":"uint256"},{"name":"claim","type":"bytes","internalType":"bytes"},{"name":"claimAccount","type":"address","internalType":"address"},{"name":"totalApprovals","type":"uint256","internalType":"uint256"}],"stateMutability":"view"},{"type":"function","name":"claimsResolved","inputs":[],"outputs":[{"name":"","type":"uint256","internalType":"uint256"}],"stateMutability":"view"},{"type":"function","name":"convertToAssets","inputs":[{"name":"shares","type":"uint256","internalType":"uint256"}],"outputs":[{"name":"","type":"uint256","internalType":"uint256"}],"stateMutability":"view"},{"type":"function","name":"convertToShares","inputs":[{"name":"assets","type":"uint256","internalType":"uint256"}],"outputs":[{"name":"","type":"uint256","internalType":"uint256"}],"stateMutability":"view"},{"type":"function","name":"createPolicy","inputs":[{"name":"_terms","type":"bytes","internalType":"bytes"},{"name":"_validityPeriod","type":"uint256","internalType":"uint256"},{"name":"_maxClaim","type":"uint256","internalType":"uint256"},{"name":"_price","type":"uint256","internalType":"uint256"},{"name":"_minUnderwriters","type":"uint256","internalType":"uint256"}],"outputs":[],"stateMutability":"nonpayable"},{"type":"function","name":"decimals","inputs":[],"outputs":[{"name":"","type":"uint8","internalType":"uint8"}],"stateMutability":"view"},{"type":"function","name":"deposit","inputs":[{"name":"assets","type":"uint256","internalType":"uint256"},{"name":"receiver","type":"address","internalType":"address"}],"outputs":[{"name":"","type":"uint256","internalType":"uint256"}],"stateMutability":"nonpayable"},{"type":"function","name":"fileClaim","inputs":[{"name":"_policyId","type":"uint256","internalType":"uint256"},{"name":"_claimAmount","type":"uint256","internalType":"uint256"},{"name":"_claim","type":"bytes","internalType":"bytes"}],"outputs":[],"stateMutability":"nonpayable"},{"type":"function","name":"getAllPolicies","inputs":[],"outputs":[{"name":"","type":"tuple[]","internalType":"struct Vault.Policy[]","components":[{"name":"id","type":"uint256","internalType":"uint256"},{"name":"validityPeriod","type":"uint256","internalType":"uint256"},{"name":"terms","type":"bytes","internalType":"bytes"},{"name":"maxClaim","type":"uint256","internalType":"uint256"},{"name":"price","type":"uint256","internalType":"uint256"},{"name":"minUnderwriters","type":"uint256","internalType":"uint256"}]}],"stateMutability":"view"},{"type":"function","name":"getAllUnderwriters","inputs":[],"outputs":[{"name":"","type":"address[]","internalType":"address[]"}],"stateMutability":"view"},{"type":"function","name":"isUnderwriter","inputs":[{"name":"","type":"address","internalType":"address"}],"outputs":[{"name":"","type":"bool","internalType":"bool"}],"stateMutability":"view"},{"type":"function","name":"maxDeposit","inputs":[{"name":"","type":"address","internalType":"address"}],"outputs":[{"name":"","type":"uint256","internalType":"uint256"}],"stateMutability":"view"},{"type":"function","name":"maxMint","inputs":[{"name":"","type":"address","internalType":"address"}],"outputs":[{"name":"","type":"uint256","internalType":"uint256"}],"stateMutability":"view"},{"type":"function","name":"maxRedeem","inputs":[{"name":"owner","type":"address","internalType":"address"}],"outputs":[{"name":"","type":"uint256","internalType":"uint256"}],"stateMutability":"view"},{"type":"function","name":"maxWithdraw","inputs":[{"name":"owner","type":"address","internalType":"address"}],"outputs":[{"name":"","type":"uint256","internalType":"uint256"}],"stateMutability":"view"},{"type":"function","name":"mint","inputs":[{"name":"shares","type":"uint256","internalType":"uint256"},{"name":"receiver","type":"address","internalType":"address"}],"outputs":[{"name":"","type":"uint256","internalType":"uint256"}],"stateMutability":"nonpayable"},{"type":"function","name":"name","inputs":[],"outputs":[{"name":"","type":"string","internalType":"string"}],"stateMutability":"view"},{"type":"function","name":"owner","inputs":[],"outputs":[{"name":"","type":"address","internalType":"address"}],"stateMutability":"view"},{"type":"function","name":"policies","inputs":[{"name":"","type":"uint256","internalType":"uint256"}],"outputs":[{"name":"id","type":"uint256","internalType":"uint256"},{"name":"validityPeriod","type":"uint256","internalType":"uint256"},{"name":"terms","type":"bytes","internalType":"bytes"},{"name":"maxClaim","type":"uint256","internalType":"uint256"},{"name":"price","type":"uint256","internalType":"uint256"},{"name":"minUnderwriters","type":"uint256","internalType":"uint256"}],"stateMutability":"view"},{"type":"function","name":"previewDeposit","inputs":[{"name":"assets","type":"uint256","internalType":"uint256"}],"outputs":[{"name":"","type":"uint256","internalType":"uint256"}],"stateMutability":"view"},{"type":"function","name":"previewMint","inputs":[{"name":"shares","type":"uint256","internalType":"uint256"}],"outputs":[{"name":"","type":"uint256","internalType":"uint256"}],"stateMutability":"view"},{"type":"function","name":"previewRedeem","inputs":[{"name":"shares","type":"uint256","internalType":"uint256"}],"outputs":[{"name":"","type":"uint256","internalType":"uint256"}],"stateMutability":"view"},{"type":"function","name":"previewWithdraw","inputs":[{"name":"assets","type":"uint256","internalType":"uint256"}],"outputs":[{"name":"","type":"uint256","internalType":"uint256"}],"stateMutability":"view"},{"type":"function","name":"purchasePolicy","inputs":[{"name":"policyIndex","type":"uint256","internalType":"uint256"}],"outputs":[],"stateMutability":"nonpayable"},{"type":"function","name":"redeem","inputs":[{"name":"shares","type":"uint256","internalType":"uint256"},{"name":"receiver","type":"address","internalType":"address"},{"name":"owner","type":"address","internalType":"address"}],"outputs":[{"name":"","type":"uint256","internalType":"uint256"}],"stateMutability":"nonpayable"},{"type":"function","name":"renewPolicy","inputs":[{"name":"policyId","type":"uint256","internalType":"uint256"}],"outputs":[],"stateMutability":"nonpayable"},{"type":"function","name":"renounceOwnership","inputs":[],"outputs":[],"stateMutability":"nonpayable"},{"type":"function","name":"shareHolders","inputs":[{"name":"","type":"address","internalType":"address"}],"outputs":[{"name":"","type":"uint256","internalType":"uint256"}],"stateMutability":"view"},{"type":"function","name":"symbol","inputs":[],"outputs":[{"name":"","type":"string","internalType":"string"}],"stateMutability":"view"},{"type":"function","name":"totalAssets","inputs":[],"outputs":[{"name":"","type":"uint256","internalType":"uint256"}],"stateMutability":"view"},{"type":"function","name":"totalAssetsOfLP","inputs":[{"name":"_user","type":"address","internalType":"address"}],"outputs":[{"name":"","type":"uint256","internalType":"uint256"}],"stateMutability":"view"},{"type":"function","name":"totalClaims","inputs":[],"outputs":[{"name":"","type":"uint256","internalType":"uint256"}],"stateMutability":"view"},{"type":"function","name":"totalSupply","inputs":[],"outputs":[{"name":"","type":"uint256","internalType":"uint256"}],"stateMutability":"view"},{"type":"function","name":"transfer","inputs":[{"name":"to","type":"address","internalType":"address"},{"name":"value","type":"uint256","internalType":"uint256"}],"outputs":[{"name":"","type":"bool","internalType":"bool"}],"stateMutability":"nonpayable"},{"type":"function","name":"transferFrom","inputs":[{"name":"from","type":"address","internalType":"address"},{"name":"to","type":"address","internalType":"address"},{"name":"value","type":"uint256","internalType":"uint256"}],"outputs":[{"name":"","type":"bool","internalType":"bool"}],"stateMutability":"nonpayable"},{"type":"function","name":"transferOwnership","inputs":[{"name":"newOwner","type":"address","internalType":"address"}],"outputs":[],"stateMutability":"nonpayable"},{"type":"function","name":"underlyingTokenSymbol","inputs":[],"outputs":[{"name":"","type":"string","internalType":"string"}],"stateMutability":"view"},{"type":"function","name":"underwriters","inputs":[{"name":"","type":"uint256","internalType":"uint256"}],"outputs":[{"name":"","type":"address","internalType":"address"}],"stateMutability":"view"},{"type":"function","name":"updateUnderwriter","inputs":[{"name":"_underwriter","type":"address","internalType":"address"}],"outputs":[],"stateMutability":"nonpayable"},{"type":"function","name":"userPurchaseDetails","inputs":[{"name":"","type":"address","internalType":"address"},{"name":"","type":"uint256","internalType":"uint256"}],"outputs":[{"name":"purchaseTimestamp","type":"uint256","internalType":"uint256"},{"name":"status","type":"uint8","internalType":"enum Vault.PolicyStatus"}],"stateMutability":"view"},{"type":"function","name":"withdraw","inputs":[{"name":"assets","type":"uint256","internalType":"uint256"},{"name":"receiver","type":"address","internalType":"address"},{"name":"owner","type":"address","internalType":"address"}],"outputs":[{"name":"","type":"uint256","internalType":"uint256"}],"stateMutability":"nonpayable"},{"type":"event","name":"Approval","inputs":[{"name":"owner","type":"address","indexed":true,"internalType":"address"},{"name":"spender","type":"address","indexed":true,"internalType":"address"},{"name":"value","type":"uint256","indexed":false,"internalType":"uint256"}],"anonymous":false},{"type":"event","name":"Deposit","inputs":[{"name":"sender","type":"address","indexed":true,"internalType":"address"},{"name":"owner","type":"address","indexed":true,"internalType":"address"},{"name":"assets","type":"uint256","indexed":false,"internalType":"uint256"},{"name":"shares","type":"uint256","indexed":false,"internalType":"uint256"}],"anonymous":false},{"type":"event","name":"OwnershipTransferred","inputs":[{"name":"previousOwner","type":"address","indexed":true,"internalType":"address"},{"name":"newOwner","type":"address","indexed":true,"internalType":"address"}],"anonymous":false},{"type":"event","name":"Transfer","inputs":[{"name":"from","type":"address","indexed":true,"internalType":"address"},{"name":"to","type":"address","indexed":true,"internalType":"address"},{"name":"value","type":"uint256","indexed":false,"internalType":"uint256"}],"anonymous":false},{"type":"event","name":"Withdraw","inputs":[{"name":"sender","type":"address","indexed":true,"internalType":"address"},{"name":"receiver","type":"address","indexed":true,"internalType":"address"},{"name":"owner","type":"address","indexed":true,"internalType":"address"},{"name":"assets","type":"uint256","indexed":false,"internalType":"uint256"},{"name":"shares","type":"uint256","indexed":false,"internalType":"uint256"}],"anonymous":false},{"type":"error","name":"AddressEmptyCode","inputs":[{"name":"target","type":"address","internalType":"address"}]},{"type":"error","name":"AddressInsufficientBalance","inputs":[{"name":"account","type":"address","internalType":"address"}]},{"type":"error","name":"ERC20InsufficientAllowance","inputs":[{"name":"spender","type":"address","internalType":"address"},{"name":"allowance","type":"uint256","internalType":"uint256"},{"name":"needed","type":"uint256","internalType":"uint256"}]},{"type":"error","name":"ERC20InsufficientBalance","inputs":[{"name":"sender","type":"address","internalType":"address"},{"name":"balance","type":"uint256","internalType":"uint256"},{"name":"needed","type":"uint256","internalType":"uint256"}]},{"type":"error","name":"ERC20InvalidApprover","inputs":[{"name":"approver","type":"address","internalType":"address"}]},{"type":"error","name":"ERC20InvalidReceiver","inputs":[{"name":"receiver","type":"address","internalType":"address"}]},{"type":"error","name":"ERC20InvalidSender","inputs":[{"name":"sender","type":"address","internalType":"address"}]},{"type":"error","name":"ERC20InvalidSpender","inputs":[{"name":"spender","type":"address","internalType":"address"}]},{"type":"error","name":"ERC4626ExceededMaxDeposit","inputs":[{"name":"receiver","type":"address","internalType":"address"},{"name":"assets","type":"uint256","internalType":"uint256"},{"name":"max","type":"uint256","internalType":"uint256"}]},{"type":"error","name":"ERC4626ExceededMaxMint","inputs":[{"name":"receiver","type":"address","internalType":"address"},{"name":"shares","type":"uint256","internalType":"uint256"},{"name":"max","type":"uint256","internalType":"uint256"}]},{"type":"error","name":"ERC4626ExceededMaxRedeem","inputs":[{"name":"owner","type":"address","internalType":"address"},{"name":"shares","type":"uint256","internalType":"uint256"},{"name":"max","type":"uint256","internalType":"uint256"}]},{"type":"error","name":"ERC4626ExceededMaxWithdraw","inputs":[{"name":"owner","type":"address","internalType":"address"},{"name":"assets","type":"uint256","internalType":"uint256"},{"name":"max","type":"uint256","internalType":"uint256"}]},{"type":"error","name":"FailedInnerCall","inputs":[]},{"type":"error","name":"MathOverflowedMulDiv","inputs":[]},{"type":"error","name":"OwnableInvalidOwner","inputs":[{"name":"owner","type":"address","internalType":"address"}]},{"type":"error","name":"OwnableUnauthorizedAccount","inputs":[{"name":"account","type":"address","internalType":"address"}]},{"type":"error","name":"SafeERC20FailedOperation","inputs":[{"name":"token","type":"address","internalType":"address"}]}],"bytecode":{"object":"0x60c060405234801561001057600080fd5b50604051612d7e380380612d7e83398101604081905261002f916102b0565b33838383600361003f83826103bd565b50600461004c82826103bd565b505050600080610061836100c160201b60201c565b9150915081610071576012610073565b805b60ff1660a05250506001600160a01b0390811660805281166100af57604051631e4fbdf760e01b81526000600482015260240160405180910390fd5b6100b88161019d565b505050506104b1565b60408051600481526024810182526020810180516001600160e01b031663313ce56760e01b17905290516000918291829182916001600160a01b038716916101089161047c565b600060405180830381855afa9150503d8060008114610143576040519150601f19603f3d011682016040523d82523d6000602084013e610148565b606091505b509150915081801561015c57506020815110155b15610190576000818060200190518101906101779190610498565b905060ff811161018e576001969095509350505050565b505b5060009485945092505050565b600580546001600160a01b038381166001600160a01b0319831681179093556040519116919082907f8be0079c531659141344cd1fd0a4f28419497f9722a3daafe3b4186f6b6457e090600090a35050565b634e487b7160e01b600052604160045260246000fd5b60005b83811015610220578181015183820152602001610208565b50506000910152565b600082601f83011261023a57600080fd5b81516001600160401b0380821115610254576102546101ef565b604051601f8301601f19908116603f0116810190828211818310171561027c5761027c6101ef565b8160405283815286602085880101111561029557600080fd5b6102a6846020830160208901610205565b9695505050505050565b6000806000606084860312156102c557600080fd5b83516001600160a01b03811681146102dc57600080fd5b60208501519093506001600160401b03808211156102f957600080fd5b61030587838801610229565b9350604086015191508082111561031b57600080fd5b5061032886828701610229565b9150509250925092565b600181811c9082168061034657607f821691505b60208210810361036657634e487b7160e01b600052602260045260246000fd5b50919050565b601f8211156103b8576000816000526020600020601f850160051c810160208610156103955750805b601f850160051c820191505b818110156103b4578281556001016103a1565b5050505b505050565b81516001600160401b038111156103d6576103d66101ef565b6103ea816103e48454610332565b8461036c565b602080601f83116001811461041f57600084156104075750858301515b600019600386901b1c1916600185901b1785556103b4565b600085815260208120601f198616915b8281101561044e5788860151825594840194600190910190840161042f565b508582101561046c5787850151600019600388901b60f8161c191681555b5050505050600190811b01905550565b6000825161048e818460208701610205565b9190910192915050565b6000602082840312156104aa57600080fd5b5051919050565b60805160a05161287061050e6000396000610d36015260008181610385015281816106e401528181610a1a01528181610a7901528181610ab701528181610b7d01528181611077015281816119120152611a2401526128706000f3fe608060405234801561001057600080fd5b50600436106102a05760003560e01c8063715018a611610167578063b460af94116100ce578063ce96cb7711610087578063ce96cb7714610635578063d3e8948314610648578063d905777e1461066d578063dd62ed3e14610680578063ef8b30f714610622578063f2fde38b146106b957600080fd5b8063b460af94146105c0578063b5ba6444146105d3578063ba087652146105fc578063c1260c9a1461060f578063c63d75b6146103d0578063c6e6f5921461062257600080fd5b8063a1980ae311610120578063a1980ae31461050a578063a7d423db1461054d578063a888c2cd14610556578063a8cc0aa41461057a578063a9059cbb1461059a578063b3d7f6b9146105ad57600080fd5b8063715018a6146104ae57806385a6e51d146104b65780638da5cb5b146104cb5780639213b124146104dc57806394bf804d146104ef57806395d89b411461050257600080fd5b80633cda01051161020b57806349b1b011116101c457806349b1b0111461043957806349b374cf1461044c5780634cdad506146102d55780636e2816ac1461045f5780636e553f651461047257806370a082311461048557600080fd5b80633cda0105146103bd578063402d267d146103d057806341c61383146103e557806341ebc686146103ee578063441d769c14610411578063457e55211461042457600080fd5b806318160ddd1161025d57806318160ddd1461033357806323b872dd1461033b5780632885b6bb1461034e578063293311ab14610356578063313ce5671461036957806338d52e0f1461038357600080fd5b806301e1d114146102a557806306fdde03146102c057806307a2d13a146102d5578063095ea7b3146102e85780630a28a4771461030b5780630d8decde1461031e575b600080fd5b6102ad6106cc565b6040519081526020015b60405180910390f35b6102c861075c565b6040516102b79190611fea565b6102ad6102e3366004611ffd565b6107ee565b6102fb6102f6366004612032565b610801565b60405190151581526020016102b7565b6102ad610319366004611ffd565b610819565b61033161032c366004611ffd565b610826565b005b6002546102ad565b6102fb61034936600461205c565b610b53565b6102c8610b79565b610331610364366004612098565b610c01565b610371610d2d565b60405160ff90911681526020016102b7565b7f00000000000000000000000000000000000000000000000000000000000000005b6040516001600160a01b0390911681526020016102b7565b6103a56103cb366004611ffd565b610d5a565b6102ad6103de3660046120c4565b5060001990565b6102ad60075481565b6102fb6103fc3660046120c4565b600c6020526000908152604090205460ff1681565b61033161041f3660046121a4565b610d84565b61042c610e47565b6040516102b79190612201565b610331610447366004611ffd565b610f6a565b61033161045a3660046122a2565b6110d4565b61033161046d3660046120c4565b6111c8565b6102ad610480366004612098565b611291565b6102ad6104933660046120c4565b6001600160a01b031660009081526020819052604090205490565b6103316112b7565b6104be6112cb565b6040516102b791906122f2565b6005546001600160a01b03166103a5565b6103316104ea366004611ffd565b61132c565b6102ad6104fd366004612098565b6113ac565b6102c86113ca565b61053f610518366004612032565b600a6020908152600092835260408084209091529082529020805460019091015460ff1682565b6040516102b7929190612355565b6102ad60065481565b610569610564366004611ffd565b6113d9565b6040516102b7959493929190612387565b6102ad6105883660046120c4565b600d6020526000908152604090205481565b6102fb6105a8366004612032565b61149a565b6102ad6105bb366004611ffd565b6114a8565b6102ad6105ce3660046123c3565b6114b5565b6102ad6105e13660046120c4565b6001600160a01b03166000908152600d602052604090205490565b6102ad61060a3660046123c3565b61150d565b61033161061d366004611ffd565b61155c565b6102ad610630366004611ffd565b6115a5565b6102ad6106433660046120c4565b6115b2565b61065b610656366004611ffd565b6115d6565b6040516102b7969594939291906123ff565b6102ad61067b3660046120c4565b6116aa565b6102ad61068e36600461243c565b6001600160a01b03918216600090815260016020908152604080832093909416825291909152205490565b6103316106c73660046120c4565b6116c8565b6040516370a0823160e01b81523060048201526000907f00000000000000000000000000000000000000000000000000000000000000006001600160a01b0316906370a0823190602401602060405180830381865afa158015610733573d6000803e3d6000fd5b505050506040513d601f19601f820116820180604052508101906107579190612466565b905090565b60606003805461076b9061247f565b80601f01602080910402602001604051908101604052809291908181526020018280546107979061247f565b80156107e45780601f106107b9576101008083540402835291602001916107e4565b820191906000526020600020905b8154815290600101906020018083116107c757829003601f168201915b5050505050905090565b60006107fb826000611706565b92915050565b60003361080f818585611740565b5060019392505050565b60006107fb82600161174d565b336000908152600c602052604090205460ff16151560011461084757600080fd5b6000818152600b60205260408120600481018054919260019261086b9084906124cf565b90915550508054600090600890610884906001906124e2565b81548110610894576108946124f5565b90600052602060002090600602016040518060c001604052908160008201548152602001600182015481526020016002820180546108d19061247f565b80601f01602080910402602001604051908101604052809291908181526020018280546108fd9061247f565b801561094a5780601f1061091f5761010080835404028352916020019161094a565b820191906000526020600020905b81548152906001019060200180831161092d57829003601f168201915b50505050508152602001600382015481526020016004820154815260200160058201548152505090508060a001518260040154101580156109bb5750336000908152600a602090815260408083208451845290915281206001015460ff1660028111156109b9576109b961233f565b145b15610b4e57602080820151336000908152600a835260408082208551835290935291909120546109eb90426124e2565b1015610b09578060800151826001015411610a4f5760038201546080820151610a4a916001600160a01b0316907f00000000000000000000000000000000000000000000000000000000000000005b6001600160a01b0316919061177e565b610adb565b806060015182600101541015610a9d5760038201546001830154610a4a916001600160a01b0316907f0000000000000000000000000000000000000000000000000000000000000000610a3a565b60038201546001830154610adb916001600160a01b0316907f0000000000000000000000000000000000000000000000000000000000000000610a3a565b336000908152600a60209081526040808320845184529091529020600101805460ff19166002179055610b35565b336000908152600a602090815260408083208451845290915290206001908101805460ff191690911790555b600160066000828254610b4891906124cf565b90915550505b505050565b600033610b618582856117dd565b610b6c858585611848565b60019150505b9392505050565b60607f00000000000000000000000000000000000000000000000000000000000000006001600160a01b03166395d89b416040518163ffffffff1660e01b8152600401600060405180830381865afa158015610bd9573d6000803e3d6000fd5b505050506040513d6000823e601f3d908101601f19168201604052610757919081019061250b565b60008211610c615760405162461bcd60e51b815260206004820152602260248201527f7769746864726177206d7573742062652067726561746572207468616e205a65604482015261726f60f01b60648201526084015b60405180910390fd5b6001600160a01b038116610ca65760405162461bcd60e51b815260206004820152600c60248201526b5a65726f204164647265737360a01b6044820152606401610c58565b336000908152600d6020526040902054821115610cf95760405162461bcd60e51b81526020600482015260116024820152704e6f7420656e6f7567682073686172657360781b6044820152606401610c58565b610d0482823361150d565b50336000908152600d602052604081208054849290610d249084906124e2565b90915550505050565b600061075760037f0000000000000000000000000000000000000000000000000000000000000000612579565b60098181548110610d6a57600080fd5b6000918252602090912001546001600160a01b0316905081565b610d8c6118a7565b600854600090610d9d9060016124cf565b600880546001810182556000919091526006027ff3f7a9fe364faab93b216da50a3214154f22a0a2b415b23a84c8169e8b636ee381018281557ff3f7a9fe364faab93b216da50a3214154f22a0a2b415b23a84c8169e8b636ee482018890559192507ff3f7a9fe364faab93b216da50a3214154f22a0a2b415b23a84c8169e8b636ee501610e2b88826125e2565b5060038101949094555060048301919091556005909101555050565b60606008805480602002602001604051908101604052809291908181526020016000905b82821015610f6157838290600052602060002090600602016040518060c00160405290816000820154815260200160018201548152602001600282018054610eb29061247f565b80601f0160208091040260200160405190810160405280929190818152602001828054610ede9061247f565b8015610f2b5780601f10610f0057610100808354040283529160200191610f2b565b820191906000526020600020905b815481529060010190602001808311610f0e57829003601f168201915b50505050508152602001600382015481526020016004820154815260200160058201548152505081526020019060010190610e6b565b50505050905090565b60006008610f796001846124e2565b81548110610f8957610f896124f5565b90600052602060002090600602016040518060c00160405290816000820154815260200160018201548152602001600282018054610fc69061247f565b80601f0160208091040260200160405190810160405280929190818152602001828054610ff29061247f565b801561103f5780601f106110145761010080835404028352916020019161103f565b820191906000526020600020905b81548152906001019060200180831161102257829003601f168201915b50505050508152602001600382015481526020016004820154815260200160058201548152505090506110aa333083608001516110997f000000000000000000000000000000000000000000000000000000000000000090565b6001600160a01b03169291906118d4565b50336000908152600a6020908152604080832093835292905220428155600101805460ff19169055565b61110f6040518060a0016040528060008152602001600081526020016060815260200160006001600160a01b03168152602001600081525090565b83815260208101839052604081018290523360608201526000608082018190526007548291600b916111429060016124cf565b8152602080820192909252604090810160002083518155918301516001830155820151600282019061117490826125e2565b5060608201516003820180546001600160a01b0319166001600160a01b0390921691909117905560809091015160049091015560078054600191906000906111bd9084906124cf565b909155505050505050565b6111d06118a7565b6001600160a01b0381166000908152600c602052604090205460ff161561122a5760405162461bcd60e51b815260206004820152600e60248201526d24a9afaaa72222a92ba924aa22a960911b6044820152606401610c58565b6009805460018181019092557f6e1540171b6c0c960b71a7020d9f60077f6af931a8bbf590da0223dacf75c7af0180546001600160a01b039093166001600160a01b0319909316831790556000918252600c6020526040909120805460ff19169091179055565b600060001960006112a1856115a5565b90506112af3385878461190d565b949350505050565b6112bf6118a7565b6112c9600061199f565b565b606060098054806020026020016040519081016040528092919081815260200182805480156107e457602002820191906000526020600020905b81546001600160a01b03168152600190910190602001808311611305575050505050905090565b600081116113755760405162461bcd60e51b81526020600482015260166024820152754465706f736974206c657373207468616e205a65726f60501b6044820152606401610c58565b61137f8133611291565b336000908152600d602052604090205461139991906124cf565b336000908152600d602052604090205550565b600060001960006113bc856114a8565b90506112af3385838861190d565b60606004805461076b9061247f565b600b60205260009081526040902080546001820154600283018054929391926114019061247f565b80601f016020809104026020016040519081016040528092919081815260200182805461142d9061247f565b801561147a5780601f1061144f5761010080835404028352916020019161147a565b820191906000526020600020905b81548152906001019060200180831161145d57829003601f168201915b50505050600383015460049093015491926001600160a01b031691905085565b60003361080f818585611848565b60006107fb826001611706565b6000806114c1836115b2565b9050808511156114ea57828582604051633fa733bb60e21b8152600401610c58939291906126a2565b60006114f586610819565b905061150433868689856119f1565b95945050505050565b600080611519836116aa565b90508085111561154257828582604051632e52afbb60e21b8152600401610c58939291906126a2565b600061154d866107ee565b9050611504338686848a6119f1565b600854811115610f6a5760405162461bcd60e51b81526020600482015260146024820152730929cac82989288bea09e989286b2be929c888ab60631b6044820152606401610c58565b60006107fb82600061174d565b6001600160a01b0381166000908152602081905260408120546107fb906000611706565b600881815481106115e657600080fd5b90600052602060002090600602016000915090508060000154908060010154908060020180546116159061247f565b80601f01602080910402602001604051908101604052809291908181526020018280546116419061247f565b801561168e5780601f106116635761010080835404028352916020019161168e565b820191906000526020600020905b81548152906001019060200180831161167157829003601f168201915b5050505050908060030154908060040154908060050154905086565b6001600160a01b0381166000908152602081905260408120546107fb565b6116d06118a7565b6001600160a01b0381166116fa57604051631e4fbdf760e01b815260006004820152602401610c58565b6117038161199f565b50565b6000610b726117136106cc565b61171e9060016124cf565b61172a6003600a6127a7565b60025461173791906124cf565b85919085611ab1565b610b4e8383836001611b00565b6000610b7261175e6003600a6127a7565b60025461176b91906124cf565b6117736106cc565b6117379060016124cf565b6040516001600160a01b03838116602483015260448201839052610b4e91859182169063a9059cbb906064015b604051602081830303815290604052915060e01b6020820180516001600160e01b038381831617835250505050611bc7565b6001600160a01b038381166000908152600160209081526040808320938616835292905220546000198114611842578181101561183357828183604051637dc7a0d960e11b8152600401610c58939291906126a2565b61184284848484036000611b00565b50505050565b6001600160a01b03831661187257604051634b637e8f60e11b815260006004820152602401610c58565b6001600160a01b03821661189c5760405163ec442f0560e01b815260006004820152602401610c58565b610b4e838383611c2a565b6005546001600160a01b031633146112c95760405163118cdaa760e01b8152336004820152602401610c58565b6040516001600160a01b0384811660248301528381166044830152606482018390526118429186918216906323b872dd906084016117ab565b6119397f00000000000000000000000000000000000000000000000000000000000000008530856118d4565b6119438382611d41565b826001600160a01b0316846001600160a01b03167fdcbc1c05240f31ff3ad067ef1ee35ce4997762752e3a095284754544f4c709d78484604051611991929190918252602082015260400190565b60405180910390a350505050565b600580546001600160a01b038381166001600160a01b0319831681179093556040519116919082907f8be0079c531659141344cd1fd0a4f28419497f9722a3daafe3b4186f6b6457e090600090a35050565b826001600160a01b0316856001600160a01b031614611a1557611a158386836117dd565b611a1f8382611d7b565b611a4a7f0000000000000000000000000000000000000000000000000000000000000000858461177e565b826001600160a01b0316846001600160a01b0316866001600160a01b03167ffbde797d201c681b91056529119e0b02407c7bb96a4a2c75c01fc9667232c8db8585604051611aa2929190918252602082015260400190565b60405180910390a45050505050565b600080611abf868686611db1565b9050611aca83611e75565b8015611ae6575060008480611ae157611ae16127b6565b868809115b1561150457611af66001826124cf565b9695505050505050565b6001600160a01b038416611b2a5760405163e602df0560e01b815260006004820152602401610c58565b6001600160a01b038316611b5457604051634a1406b160e11b815260006004820152602401610c58565b6001600160a01b038085166000908152600160209081526040808320938716835292905220829055801561184257826001600160a01b0316846001600160a01b03167f8c5be1e5ebec7d5bd14f71427d1e84f3dd0314c0f7b2291e5b200ac8c7c3b9258460405161199191815260200190565b6000611bdc6001600160a01b03841683611ea2565b90508051600014158015611c01575080806020019051810190611bff91906127cc565b155b15610b4e57604051635274afe760e01b81526001600160a01b0384166004820152602401610c58565b6001600160a01b038316611c55578060026000828254611c4a91906124cf565b90915550611cb49050565b6001600160a01b03831660009081526020819052604090205481811015611c955783818360405163391434e360e21b8152600401610c58939291906126a2565b6001600160a01b03841660009081526020819052604090209082900390555b6001600160a01b038216611cd057600280548290039055611cef565b6001600160a01b03821660009081526020819052604090208054820190555b816001600160a01b0316836001600160a01b03167fddf252ad1be2c89b69c2b068fc378daa952ba7f163c4a11628f55a4df523b3ef83604051611d3491815260200190565b60405180910390a3505050565b6001600160a01b038216611d6b5760405163ec442f0560e01b815260006004820152602401610c58565b611d7760008383611c2a565b5050565b6001600160a01b038216611da557604051634b637e8f60e11b815260006004820152602401610c58565b611d7782600083611c2a565b6000838302816000198587098281108382030391505080600003611de857838281611dde57611dde6127b6565b0492505050610b72565b808411611e085760405163227bc15360e01b815260040160405180910390fd5b6000848688096000868103871696879004966002600389028118808a02820302808a02820302808a02820302808a02820302808a02820302808a02909103029181900381900460010186841190950394909402919094039290920491909117919091029150509392505050565b60006002826003811115611e8b57611e8b61233f565b611e9591906127ee565b60ff166001149050919050565b6060610b728383600084600080856001600160a01b03168486604051611ec8919061281e565b60006040518083038185875af1925050503d8060008114611f05576040519150601f19603f3d011682016040523d82523d6000602084013e611f0a565b606091505b5091509150611af6868383606082611f2a57611f2582611f71565b610b72565b8151158015611f4157506001600160a01b0384163b155b15611f6a57604051639996b31560e01b81526001600160a01b0385166004820152602401610c58565b5080610b72565b805115611f815780518082602001fd5b604051630a12f52160e11b815260040160405180910390fd5b60005b83811015611fb5578181015183820152602001611f9d565b50506000910152565b60008151808452611fd6816020860160208601611f9a565b601f01601f19169290920160200192915050565b602081526000610b726020830184611fbe565b60006020828403121561200f57600080fd5b5035919050565b80356001600160a01b038116811461202d57600080fd5b919050565b6000806040838503121561204557600080fd5b61204e83612016565b946020939093013593505050565b60008060006060848603121561207157600080fd5b61207a84612016565b925061208860208501612016565b9150604084013590509250925092565b600080604083850312156120ab57600080fd5b823591506120bb60208401612016565b90509250929050565b6000602082840312156120d657600080fd5b610b7282612016565b634e487b7160e01b600052604160045260246000fd5b604051601f8201601f1916810167ffffffffffffffff8111828210171561211e5761211e6120df565b604052919050565b600067ffffffffffffffff821115612140576121406120df565b50601f01601f191660200190565b600082601f83011261215f57600080fd5b813561217261216d82612126565b6120f5565b81815284602083860101111561218757600080fd5b816020850160208301376000918101602001919091529392505050565b600080600080600060a086880312156121bc57600080fd5b853567ffffffffffffffff8111156121d357600080fd5b6121df8882890161214e565b9860208801359850604088013597606081013597506080013595509350505050565b600060208083018184528085518083526040925060408601915060408160051b87010184880160005b8381101561229457603f19898403018552815160c081518552888201518986015287820151818987015261226082870182611fbe565b606084810151908801526080808501519088015260a09384015193909601929092525050938601939086019060010161222a565b509098975050505050505050565b6000806000606084860312156122b757600080fd5b8335925060208401359150604084013567ffffffffffffffff8111156122dc57600080fd5b6122e88682870161214e565b9150509250925092565b6020808252825182820181905260009190848201906040850190845b818110156123335783516001600160a01b03168352928401929184019160010161230e565b50909695505050505050565b634e487b7160e01b600052602160045260246000fd5b828152604081016003831061237a57634e487b7160e01b600052602160045260246000fd5b8260208301529392505050565b85815284602082015260a0604082015260006123a660a0830186611fbe565b6001600160a01b0394909416606083015250608001529392505050565b6000806000606084860312156123d857600080fd5b833592506123e860208501612016565b91506123f660408501612016565b90509250925092565b86815285602082015260c06040820152600061241e60c0830187611fbe565b606083019590955250608081019290925260a0909101529392505050565b6000806040838503121561244f57600080fd5b61245883612016565b91506120bb60208401612016565b60006020828403121561247857600080fd5b5051919050565b600181811c9082168061249357607f821691505b6020821081036124b357634e487b7160e01b600052602260045260246000fd5b50919050565b634e487b7160e01b600052601160045260246000fd5b808201808211156107fb576107fb6124b9565b818103818111156107fb576107fb6124b9565b634e487b7160e01b600052603260045260246000fd5b60006020828403121561251d57600080fd5b815167ffffffffffffffff81111561253457600080fd5b8201601f8101841361254557600080fd5b805161255361216d82612126565b81815285602083850101111561256857600080fd5b611504826020830160208601611f9a565b60ff81811683821601908111156107fb576107fb6124b9565b601f821115610b4e576000816000526020600020601f850160051c810160208610156125bb5750805b601f850160051c820191505b818110156125da578281556001016125c7565b505050505050565b815167ffffffffffffffff8111156125fc576125fc6120df565b6126108161260a845461247f565b84612592565b602080601f831160018114612645576000841561262d5750858301515b600019600386901b1c1916600185901b1785556125da565b600085815260208120601f198616915b8281101561267457888601518255948401946001909101908401612655565b50858210156126925787850151600019600388901b60f8161c191681555b5050505050600190811b01905550565b6001600160a01b039390931683526020830191909152604082015260600190565b600181815b808511156126fe5781600019048211156126e4576126e46124b9565b808516156126f157918102915b93841c93908002906126c8565b509250929050565b600082612715575060016107fb565b81612722575060006107fb565b816001811461273857600281146127425761275e565b60019150506107fb565b60ff841115612753576127536124b9565b50506001821b6107fb565b5060208310610133831016604e8410600b8410161715612781575081810a6107fb565b61278b83836126c3565b806000190482111561279f5761279f6124b9565b029392505050565b6000610b7260ff841683612706565b634e487b7160e01b600052601260045260246000fd5b6000602082840312156127de57600080fd5b81518015158114610b7257600080fd5b600060ff83168061280f57634e487b7160e01b600052601260045260246000fd5b8060ff84160691505092915050565b60008251612830818460208701611f9a565b919091019291505056fea2646970667358221220b93410ba6b2f23de4901b9b5c0b59773be6c9726e55d17ca5d22e671536fd8c664736f6c63430008190033","linkReferences":{}},"methodIdentifiers":{"_deposit(uint256)":"9213b124","_withdraw(uint256,address)":"293311ab","allowance(address,address)":"dd62ed3e","approve(address,uint256)":"095ea7b3","asset()":"38d52e0f","attestClaim(uint256)":"0d8decde","balanceOf(address)":"70a08231","claims(uint256)":"a888c2cd","claimsResolved()":"a7d423db","convertToAssets(uint256)":"07a2d13a","convertToShares(uint256)":"c6e6f592","createPolicy(bytes,uint256,uint256,uint256,uint256)":"441d769c","decimals()":"313ce567","deposit(uint256,address)":"6e553f65","fileClaim(uint256,uint256,bytes)":"49b374cf","getAllPolicies()":"457e5521","getAllUnderwriters()":"85a6e51d","isUnderwriter(address)":"41ebc686","maxDeposit(address)":"402d267d","maxMint(address)":"c63d75b6","maxRedeem(address)":"d905777e","maxWithdraw(address)":"ce96cb77","mint(uint256,address)":"94bf804d","name()":"06fdde03","owner()":"8da5cb5b","policies(uint256)":"d3e89483","previewDeposit(uint256)":"ef8b30f7","previewMint(uint256)":"b3d7f6b9","previewRedeem(uint256)":"4cdad506","previewWithdraw(uint256)":"0a28a477","purchasePolicy(uint256)":"c1260c9a","redeem(uint256,address,address)":"ba087652","renewPolicy(uint256)":"49b1b011","renounceOwnership()":"715018a6","shareHolders(address)":"a8cc0aa4","symbol()":"95d89b41","totalAssets()":"01e1d114","totalAssetsOfLP(address)":"b5ba6444","totalClaims()":"41c61383","totalSupply()":"18160ddd","transfer(address,uint256)":"a9059cbb","transferFrom(address,address,uint256)":"23b872dd","transferOwnership(address)":"f2fde38b","underlyingTokenSymbol()":"2885b6bb","underwriters(uint256)":"3cda0105","updateUnderwriter(address)":"6e2816ac","userPurchaseDetails(address,uint256)":"a1980ae3","withdraw(uint256,address,address)":"b460af94"},"id":33}