{"abi":[{"type":"function","name":"createNewPool","inputs":[{"name":"_asset","type":"address","internalType":"contract ERC20"},{"name":"_name","type":"string","internalType":"string"},{"name":"_symbol","type":"string","internalType":"string"}],"outputs":[{"name":"","type":"address","internalType":"contract Vault"}],"stateMutability":"nonpayable"},{"type":"function","name":"insurancePools","inputs":[{"name":"","type":"uint256","internalType":"uint256"}],"outputs":[{"name":"","type":"address","internalType":"contract Vault"}],"stateMutability":"view"},{"type":"event","name":"PoolCreated","inputs":[{"name":"owner","type":"address","indexed":false,"internalType":"address"},{"name":"pool","type":"address","indexed":false,"internalType":"address"}],"anonymous":false}],"bytecode":{"object":"0x6080604052348015600f57600080fd5b50612fc58061001f6000396000f3fe608060405234801561001057600080fd5b50600436106100365760003560e01c8063d765ca161461003b578063ec540b841461006a575b600080fd5b61004e61004936600461017f565b61007d565b6040516001600160a01b03909116815260200160405180910390f35b61004e61007836600461023b565b6100a7565b6000818154811061008d57600080fd5b6000918252602090912001546001600160a01b0316905081565b6000808484846040516100b990610172565b6100c593929190610303565b604051809103906000f0801580156100e1573d6000803e3d6000fd5b50600080546001810182559080527f290decd9548b62a8d60345a988386fc84ba6bc95484008f6362f93160ef3e5630180546001600160a01b0319166001600160a01b0383169081179091556040805133815260208101929092529192507f4f2ce4e40f623ca765fc0167a25cb7842ceaafb8d82d3dec26ca0d0e0d2d4896910160405180910390a1949350505050565b612c4c8061034483390190565b60006020828403121561019157600080fd5b5035919050565b634e487b7160e01b600052604160045260246000fd5b600082601f8301126101bf57600080fd5b813567ffffffffffffffff808211156101da576101da610198565b604051601f8301601f19908116603f0116810190828211818310171561020257610202610198565b8160405283815286602085880101111561021b57600080fd5b836020870160208301376000602085830101528094505050505092915050565b60008060006060848603121561025057600080fd5b83356001600160a01b038116811461026757600080fd5b9250602084013567ffffffffffffffff8082111561028457600080fd5b610290878388016101ae565b935060408601359150808211156102a657600080fd5b506102b3868287016101ae565b9150509250925092565b6000815180845260005b818110156102e3576020818501810151868301820152016102c7565b506000602082860101526020601f19601f83011685010191505092915050565b6001600160a01b0384168152606060208201819052600090610327908301856102bd565b828103604084015261033981856102bd565b969550505050505056fe60c060405234801561001057600080fd5b50604051612c4c380380612c4c83398101604081905261002f916102b0565b33838383600361003f83826103bd565b50600461004c82826103bd565b505050600080610061836100c160201b60201c565b9150915081610071576012610073565b805b60ff1660a05250506001600160a01b0390811660805281166100af57604051631e4fbdf760e01b81526000600482015260240160405180910390fd5b6100b88161019d565b505050506104b1565b60408051600481526024810182526020810180516001600160e01b031663313ce56760e01b17905290516000918291829182916001600160a01b038716916101089161047c565b600060405180830381855afa9150503d8060008114610143576040519150601f19603f3d011682016040523d82523d6000602084013e610148565b606091505b509150915081801561015c57506020815110155b15610190576000818060200190518101906101779190610498565b905060ff811161018e576001969095509350505050565b505b5060009485945092505050565b600580546001600160a01b038381166001600160a01b0319831681179093556040519116919082907f8be0079c531659141344cd1fd0a4f28419497f9722a3daafe3b4186f6b6457e090600090a35050565b634e487b7160e01b600052604160045260246000fd5b60005b83811015610220578181015183820152602001610208565b50506000910152565b600082601f83011261023a57600080fd5b81516001600160401b0380821115610254576102546101ef565b604051601f8301601f19908116603f0116810190828211818310171561027c5761027c6101ef565b8160405283815286602085880101111561029557600080fd5b6102a6846020830160208901610205565b9695505050505050565b6000806000606084860312156102c557600080fd5b83516001600160a01b03811681146102dc57600080fd5b60208501519093506001600160401b03808211156102f957600080fd5b61030587838801610229565b9350604086015191508082111561031b57600080fd5b5061032886828701610229565b9150509250925092565b600181811c9082168061034657607f821691505b60208210810361036657634e487b7160e01b600052602260045260246000fd5b50919050565b601f8211156103b8576000816000526020600020601f850160051c810160208610156103955750805b601f850160051c820191505b818110156103b4578281556001016103a1565b5050505b505050565b81516001600160401b038111156103d6576103d66101ef565b6103ea816103e48454610332565b8461036c565b602080601f83116001811461041f57600084156104075750858301515b600019600386901b1c1916600185901b1785556103b4565b600085815260208120601f198616915b8281101561044e5788860151825594840194600190910190840161042f565b508582101561046c5787850151600019600388901b60f8161c191681555b5050505050600190811b01905550565b6000825161048e818460208701610205565b9190910192915050565b6000602082840312156104aa57600080fd5b5051919050565b60805160a0516127456105076000396000610c9b015260008181610372015281816106d101528181610a0701528181610a6601528181610aa401528181610fdc01528181611877015261198901526127456000f3fe608060405234801561001057600080fd5b50600436106102955760003560e01c8063715018a611610167578063b460af94116100ce578063ce96cb7711610087578063ce96cb7714610622578063d3e8948314610635578063d905777e1461065a578063dd62ed3e1461066d578063ef8b30f71461060f578063f2fde38b146106a657600080fd5b8063b460af94146105ad578063b5ba6444146105c0578063ba087652146105e9578063c1260c9a146105fc578063c63d75b6146103bd578063c6e6f5921461060f57600080fd5b8063a1980ae311610120578063a1980ae3146104f7578063a7d423db1461053a578063a888c2cd14610543578063a8cc0aa414610567578063a9059cbb14610587578063b3d7f6b91461059a57600080fd5b8063715018a61461049b57806385a6e51d146104a35780638da5cb5b146104b85780639213b124146104c957806394bf804d146104dc57806395d89b41146104ef57600080fd5b80633cda01051161020b57806349b1b011116101c457806349b1b0111461042657806349b374cf146104395780634cdad506146102ca5780636e2816ac1461044c5780636e553f651461045f57806370a082311461047257600080fd5b80633cda0105146103aa578063402d267d146103bd57806341c61383146103d257806341ebc686146103db578063441d769c146103fe578063457e55211461041157600080fd5b80630d8decde1161025d5780630d8decde1461031357806318160ddd1461032857806323b872dd14610330578063293311ab14610343578063313ce5671461035657806338d52e0f1461037057600080fd5b806301e1d1141461029a57806306fdde03146102b557806307a2d13a146102ca578063095ea7b3146102dd5780630a28a47714610300575b600080fd5b6102a26106b9565b6040519081526020015b60405180910390f35b6102bd610749565b6040516102ac9190611f4f565b6102a26102d8366004611f62565b6107db565b6102f06102eb366004611f97565b6107ee565b60405190151581526020016102ac565b6102a261030e366004611f62565b610806565b610326610321366004611f62565b610813565b005b6002546102a2565b6102f061033e366004611fc1565b610b40565b610326610351366004611ffd565b610b66565b61035e610c92565b60405160ff90911681526020016102ac565b7f00000000000000000000000000000000000000000000000000000000000000005b6040516001600160a01b0390911681526020016102ac565b6103926103b8366004611f62565b610cbf565b6102a26103cb366004612029565b5060001990565b6102a260075481565b6102f06103e9366004612029565b600c6020526000908152604090205460ff1681565b61032661040c3660046120e7565b610ce9565b610419610dac565b6040516102ac9190612144565b610326610434366004611f62565b610ecf565b6103266104473660046121e5565b611039565b61032661045a366004612029565b61112d565b6102a261046d366004611ffd565b6111f6565b6102a2610480366004612029565b6001600160a01b031660009081526020819052604090205490565b61032661121c565b6104ab611230565b6040516102ac9190612235565b6005546001600160a01b0316610392565b6103266104d7366004611f62565b611291565b6102a26104ea366004611ffd565b611311565b6102bd61132f565b61052c610505366004611f97565b600a6020908152600092835260408084209091529082529020805460019091015460ff1682565b6040516102ac929190612298565b6102a260065481565b610556610551366004611f62565b61133e565b6040516102ac9594939291906122ca565b6102a2610575366004612029565b600d6020526000908152604090205481565b6102f0610595366004611f97565b6113ff565b6102a26105a8366004611f62565b61140d565b6102a26105bb366004612306565b61141a565b6102a26105ce366004612029565b6001600160a01b03166000908152600d602052604090205490565b6102a26105f7366004612306565b611472565b61032661060a366004611f62565b6114c1565b6102a261061d366004611f62565b61150a565b6102a2610630366004612029565b611517565b610648610643366004611f62565b61153b565b6040516102ac96959493929190612342565b6102a2610668366004612029565b61160f565b6102a261067b36600461237f565b6001600160a01b03918216600090815260016020908152604080832093909416825291909152205490565b6103266106b4366004612029565b61162d565b6040516370a0823160e01b81523060048201526000907f00000000000000000000000000000000000000000000000000000000000000006001600160a01b0316906370a0823190602401602060405180830381865afa158015610720573d6000803e3d6000fd5b505050506040513d601f19601f8201168201806040525081019061074491906123a9565b905090565b606060038054610758906123c2565b80601f0160208091040260200160405190810160405280929190818152602001828054610784906123c2565b80156107d15780601f106107a6576101008083540402835291602001916107d1565b820191906000526020600020905b8154815290600101906020018083116107b457829003601f168201915b5050505050905090565b60006107e882600061166b565b92915050565b6000336107fc8185856116a5565b5060019392505050565b60006107e88260016116b2565b336000908152600c602052604090205460ff16151560011461083457600080fd5b6000818152600b602052604081206004810180549192600192610858908490612412565b9091555050805460009060089061087190600190612425565b8154811061088157610881612438565b90600052602060002090600602016040518060c001604052908160008201548152602001600182015481526020016002820180546108be906123c2565b80601f01602080910402602001604051908101604052809291908181526020018280546108ea906123c2565b80156109375780601f1061090c57610100808354040283529160200191610937565b820191906000526020600020905b81548152906001019060200180831161091a57829003601f168201915b50505050508152602001600382015481526020016004820154815260200160058201548152505090508060a001518260040154101580156109a85750336000908152600a602090815260408083208451845290915281206001015460ff1660028111156109a6576109a6612282565b145b15610b3b57602080820151336000908152600a835260408082208551835290935291909120546109d89042612425565b1015610af6578060800151826001015411610a3c5760038201546080820151610a37916001600160a01b0316907f00000000000000000000000000000000000000000000000000000000000000005b6001600160a01b031691906116e3565b610ac8565b806060015182600101541015610a8a5760038201546001830154610a37916001600160a01b0316907f0000000000000000000000000000000000000000000000000000000000000000610a27565b60038201546001830154610ac8916001600160a01b0316907f0000000000000000000000000000000000000000000000000000000000000000610a27565b336000908152600a60209081526040808320845184529091529020600101805460ff19166002179055610b22565b336000908152600a602090815260408083208451845290915290206001908101805460ff191690911790555b600160066000828254610b359190612412565b90915550505b505050565b600033610b4e858285611742565b610b598585856117ad565b60019150505b9392505050565b60008211610bc65760405162461bcd60e51b815260206004820152602260248201527f7769746864726177206d7573742062652067726561746572207468616e205a65604482015261726f60f01b60648201526084015b60405180910390fd5b6001600160a01b038116610c0b5760405162461bcd60e51b815260206004820152600c60248201526b5a65726f204164647265737360a01b6044820152606401610bbd565b336000908152600d6020526040902054821115610c5e5760405162461bcd60e51b81526020600482015260116024820152704e6f7420656e6f7567682073686172657360781b6044820152606401610bbd565b610c69828233611472565b50336000908152600d602052604081208054849290610c89908490612425565b90915550505050565b600061074460037f000000000000000000000000000000000000000000000000000000000000000061244e565b60098181548110610ccf57600080fd5b6000918252602090912001546001600160a01b0316905081565b610cf161180c565b600854600090610d02906001612412565b600880546001810182556000919091526006027ff3f7a9fe364faab93b216da50a3214154f22a0a2b415b23a84c8169e8b636ee381018281557ff3f7a9fe364faab93b216da50a3214154f22a0a2b415b23a84c8169e8b636ee482018890559192507ff3f7a9fe364faab93b216da50a3214154f22a0a2b415b23a84c8169e8b636ee501610d9088826124b7565b5060038101949094555060048301919091556005909101555050565b60606008805480602002602001604051908101604052809291908181526020016000905b82821015610ec657838290600052602060002090600602016040518060c00160405290816000820154815260200160018201548152602001600282018054610e17906123c2565b80601f0160208091040260200160405190810160405280929190818152602001828054610e43906123c2565b8015610e905780601f10610e6557610100808354040283529160200191610e90565b820191906000526020600020905b815481529060010190602001808311610e7357829003601f168201915b50505050508152602001600382015481526020016004820154815260200160058201548152505081526020019060010190610dd0565b50505050905090565b60006008610ede600184612425565b81548110610eee57610eee612438565b90600052602060002090600602016040518060c00160405290816000820154815260200160018201548152602001600282018054610f2b906123c2565b80601f0160208091040260200160405190810160405280929190818152602001828054610f57906123c2565b8015610fa45780601f10610f7957610100808354040283529160200191610fa4565b820191906000526020600020905b815481529060010190602001808311610f8757829003601f168201915b505050505081526020016003820154815260200160048201548152602001600582015481525050905061100f33308360800151610ffe7f000000000000000000000000000000000000000000000000000000000000000090565b6001600160a01b0316929190611839565b50336000908152600a6020908152604080832093835292905220428155600101805460ff19169055565b6110746040518060a0016040528060008152602001600081526020016060815260200160006001600160a01b03168152602001600081525090565b83815260208101839052604081018290523360608201526000608082018190526007548291600b916110a7906001612412565b815260208082019290925260409081016000208351815591830151600183015582015160028201906110d990826124b7565b5060608201516003820180546001600160a01b0319166001600160a01b039092169190911790556080909101516004909101556007805460019190600090611122908490612412565b909155505050505050565b61113561180c565b6001600160a01b0381166000908152600c602052604090205460ff161561118f5760405162461bcd60e51b815260206004820152600e60248201526d24a9afaaa72222a92ba924aa22a960911b6044820152606401610bbd565b6009805460018181019092557f6e1540171b6c0c960b71a7020d9f60077f6af931a8bbf590da0223dacf75c7af0180546001600160a01b039093166001600160a01b0319909316831790556000918252600c6020526040909120805460ff19169091179055565b600060001960006112068561150a565b905061121433858784611872565b949350505050565b61122461180c565b61122e6000611904565b565b606060098054806020026020016040519081016040528092919081815260200182805480156107d157602002820191906000526020600020905b81546001600160a01b0316815260019091019060200180831161126a575050505050905090565b600081116112da5760405162461bcd60e51b81526020600482015260166024820152754465706f736974206c657373207468616e205a65726f60501b6044820152606401610bbd565b6112e481336111f6565b336000908152600d60205260409020546112fe9190612412565b336000908152600d602052604090205550565b600060001960006113218561140d565b905061121433858388611872565b606060048054610758906123c2565b600b6020526000908152604090208054600182015460028301805492939192611366906123c2565b80601f0160208091040260200160405190810160405280929190818152602001828054611392906123c2565b80156113df5780601f106113b4576101008083540402835291602001916113df565b820191906000526020600020905b8154815290600101906020018083116113c257829003601f168201915b50505050600383015460049093015491926001600160a01b031691905085565b6000336107fc8185856117ad565b60006107e882600161166b565b60008061142683611517565b90508085111561144f57828582604051633fa733bb60e21b8152600401610bbd93929190612577565b600061145a86610806565b90506114693386868985611956565b95945050505050565b60008061147e8361160f565b9050808511156114a757828582604051632e52afbb60e21b8152600401610bbd93929190612577565b60006114b2866107db565b9050611469338686848a611956565b600854811115610ecf5760405162461bcd60e51b81526020600482015260146024820152730929cac82989288bea09e989286b2be929c888ab60631b6044820152606401610bbd565b60006107e88260006116b2565b6001600160a01b0381166000908152602081905260408120546107e890600061166b565b6008818154811061154b57600080fd5b906000526020600020906006020160009150905080600001549080600101549080600201805461157a906123c2565b80601f01602080910402602001604051908101604052809291908181526020018280546115a6906123c2565b80156115f35780601f106115c8576101008083540402835291602001916115f3565b820191906000526020600020905b8154815290600101906020018083116115d657829003601f168201915b5050505050908060030154908060040154908060050154905086565b6001600160a01b0381166000908152602081905260408120546107e8565b61163561180c565b6001600160a01b03811661165f57604051631e4fbdf760e01b815260006004820152602401610bbd565b61166881611904565b50565b6000610b5f6116786106b9565b611683906001612412565b61168f6003600a61267c565b60025461169c9190612412565b85919085611a16565b610b3b8383836001611a65565b6000610b5f6116c36003600a61267c565b6002546116d09190612412565b6116d86106b9565b61169c906001612412565b6040516001600160a01b03838116602483015260448201839052610b3b91859182169063a9059cbb906064015b604051602081830303815290604052915060e01b6020820180516001600160e01b038381831617835250505050611b2c565b6001600160a01b0383811660009081526001602090815260408083209386168352929052205460001981146117a7578181101561179857828183604051637dc7a0d960e11b8152600401610bbd93929190612577565b6117a784848484036000611a65565b50505050565b6001600160a01b0383166117d757604051634b637e8f60e11b815260006004820152602401610bbd565b6001600160a01b0382166118015760405163ec442f0560e01b815260006004820152602401610bbd565b610b3b838383611b8f565b6005546001600160a01b0316331461122e5760405163118cdaa760e01b8152336004820152602401610bbd565b6040516001600160a01b0384811660248301528381166044830152606482018390526117a79186918216906323b872dd90608401611710565b61189e7f0000000000000000000000000000000000000000000000000000000000000000853085611839565b6118a88382611ca6565b826001600160a01b0316846001600160a01b03167fdcbc1c05240f31ff3ad067ef1ee35ce4997762752e3a095284754544f4c709d784846040516118f6929190918252602082015260400190565b60405180910390a350505050565b600580546001600160a01b038381166001600160a01b0319831681179093556040519116919082907f8be0079c531659141344cd1fd0a4f28419497f9722a3daafe3b4186f6b6457e090600090a35050565b826001600160a01b0316856001600160a01b03161461197a5761197a838683611742565b6119848382611ce0565b6119af7f000000000000000000000000000000000000000000000000000000000000000085846116e3565b826001600160a01b0316846001600160a01b0316866001600160a01b03167ffbde797d201c681b91056529119e0b02407c7bb96a4a2c75c01fc9667232c8db8585604051611a07929190918252602082015260400190565b60405180910390a45050505050565b600080611a24868686611d16565b9050611a2f83611dda565b8015611a4b575060008480611a4657611a4661268b565b868809115b1561146957611a5b600182612412565b9695505050505050565b6001600160a01b038416611a8f5760405163e602df0560e01b815260006004820152602401610bbd565b6001600160a01b038316611ab957604051634a1406b160e11b815260006004820152602401610bbd565b6001600160a01b03808516600090815260016020908152604080832093871683529290522082905580156117a757826001600160a01b0316846001600160a01b03167f8c5be1e5ebec7d5bd14f71427d1e84f3dd0314c0f7b2291e5b200ac8c7c3b925846040516118f691815260200190565b6000611b416001600160a01b03841683611e07565b90508051600014158015611b66575080806020019051810190611b6491906126a1565b155b15610b3b57604051635274afe760e01b81526001600160a01b0384166004820152602401610bbd565b6001600160a01b038316611bba578060026000828254611baf9190612412565b90915550611c199050565b6001600160a01b03831660009081526020819052604090205481811015611bfa5783818360405163391434e360e21b8152600401610bbd93929190612577565b6001600160a01b03841660009081526020819052604090209082900390555b6001600160a01b038216611c3557600280548290039055611c54565b6001600160a01b03821660009081526020819052604090208054820190555b816001600160a01b0316836001600160a01b03167fddf252ad1be2c89b69c2b068fc378daa952ba7f163c4a11628f55a4df523b3ef83604051611c9991815260200190565b60405180910390a3505050565b6001600160a01b038216611cd05760405163ec442f0560e01b815260006004820152602401610bbd565b611cdc60008383611b8f565b5050565b6001600160a01b038216611d0a57604051634b637e8f60e11b815260006004820152602401610bbd565b611cdc82600083611b8f565b6000838302816000198587098281108382030391505080600003611d4d57838281611d4357611d4361268b565b0492505050610b5f565b808411611d6d5760405163227bc15360e01b815260040160405180910390fd5b6000848688096000868103871696879004966002600389028118808a02820302808a02820302808a02820302808a02820302808a02820302808a02909103029181900381900460010186841190950394909402919094039290920491909117919091029150509392505050565b60006002826003811115611df057611df0612282565b611dfa91906126c3565b60ff166001149050919050565b6060610b5f8383600084600080856001600160a01b03168486604051611e2d91906126f3565b60006040518083038185875af1925050503d8060008114611e6a576040519150601f19603f3d011682016040523d82523d6000602084013e611e6f565b606091505b5091509150611a5b868383606082611e8f57611e8a82611ed6565b610b5f565b8151158015611ea657506001600160a01b0384163b155b15611ecf57604051639996b31560e01b81526001600160a01b0385166004820152602401610bbd565b5080610b5f565b805115611ee65780518082602001fd5b604051630a12f52160e11b815260040160405180910390fd5b60005b83811015611f1a578181015183820152602001611f02565b50506000910152565b60008151808452611f3b816020860160208601611eff565b601f01601f19169290920160200192915050565b602081526000610b5f6020830184611f23565b600060208284031215611f7457600080fd5b5035919050565b80356001600160a01b0381168114611f9257600080fd5b919050565b60008060408385031215611faa57600080fd5b611fb383611f7b565b946020939093013593505050565b600080600060608486031215611fd657600080fd5b611fdf84611f7b565b9250611fed60208501611f7b565b9150604084013590509250925092565b6000806040838503121561201057600080fd5b8235915061202060208401611f7b565b90509250929050565b60006020828403121561203b57600080fd5b610b5f82611f7b565b634e487b7160e01b600052604160045260246000fd5b600082601f83011261206b57600080fd5b813567ffffffffffffffff8082111561208657612086612044565b604051601f8301601f19908116603f011681019082821181831017156120ae576120ae612044565b816040528381528660208588010111156120c757600080fd5b836020870160208301376000602085830101528094505050505092915050565b600080600080600060a086880312156120ff57600080fd5b853567ffffffffffffffff81111561211657600080fd5b6121228882890161205a565b9860208801359850604088013597606081013597506080013595509350505050565b600060208083018184528085518083526040925060408601915060408160051b87010184880160005b838110156121d757603f19898403018552815160c08151855288820151898601528782015181898701526121a382870182611f23565b606084810151908801526080808501519088015260a09384015193909601929092525050938601939086019060010161216d565b509098975050505050505050565b6000806000606084860312156121fa57600080fd5b8335925060208401359150604084013567ffffffffffffffff81111561221f57600080fd5b61222b8682870161205a565b9150509250925092565b6020808252825182820181905260009190848201906040850190845b818110156122765783516001600160a01b031683529284019291840191600101612251565b50909695505050505050565b634e487b7160e01b600052602160045260246000fd5b82815260408101600383106122bd57634e487b7160e01b600052602160045260246000fd5b8260208301529392505050565b85815284602082015260a0604082015260006122e960a0830186611f23565b6001600160a01b0394909416606083015250608001529392505050565b60008060006060848603121561231b57600080fd5b8335925061232b60208501611f7b565b915061233960408501611f7b565b90509250925092565b86815285602082015260c06040820152600061236160c0830187611f23565b606083019590955250608081019290925260a0909101529392505050565b6000806040838503121561239257600080fd5b61239b83611f7b565b915061202060208401611f7b565b6000602082840312156123bb57600080fd5b5051919050565b600181811c908216806123d657607f821691505b6020821081036123f657634e487b7160e01b600052602260045260246000fd5b50919050565b634e487b7160e01b600052601160045260246000fd5b808201808211156107e8576107e86123fc565b818103818111156107e8576107e86123fc565b634e487b7160e01b600052603260045260246000fd5b60ff81811683821601908111156107e8576107e86123fc565b601f821115610b3b576000816000526020600020601f850160051c810160208610156124905750805b601f850160051c820191505b818110156124af5782815560010161249c565b505050505050565b815167ffffffffffffffff8111156124d1576124d1612044565b6124e5816124df84546123c2565b84612467565b602080601f83116001811461251a57600084156125025750858301515b600019600386901b1c1916600185901b1785556124af565b600085815260208120601f198616915b828110156125495788860151825594840194600190910190840161252a565b50858210156125675787850151600019600388901b60f8161c191681555b5050505050600190811b01905550565b6001600160a01b039390931683526020830191909152604082015260600190565b600181815b808511156125d35781600019048211156125b9576125b96123fc565b808516156125c657918102915b93841c939080029061259d565b509250929050565b6000826125ea575060016107e8565b816125f7575060006107e8565b816001811461260d576002811461261757612633565b60019150506107e8565b60ff841115612628576126286123fc565b50506001821b6107e8565b5060208310610133831016604e8410600b8410161715612656575081810a6107e8565b6126608383612598565b8060001904821115612674576126746123fc565b029392505050565b6000610b5f60ff8416836125db565b634e487b7160e01b600052601260045260246000fd5b6000602082840312156126b357600080fd5b81518015158114610b5f57600080fd5b600060ff8316806126e457634e487b7160e01b600052601260045260246000fd5b8060ff84160691505092915050565b60008251612705818460208701611eff565b919091019291505056fea26469706673582212200c9352079e3a99eb571c35ad3a7aaf76ca52d35fa4320bc293ae56df321c9e7f64736f6c63430008190033a264697066735822122047ed066f19c5cd46ac4f9a4fdb8c30a8cbc5d477cd1d489292985eedfeb88b4e64736f6c63430008190033","linkReferences":{}},"methodIdentifiers":{"createNewPool(address,string,string)":"ec540b84","insurancePools(uint256)":"d765ca16"},"id":32}